{
  "contractName": "Jackpot",
  "abi": [
    {
      "anonymous": false,
      "inputs": [
        {
          "indexed": false,
          "internalType": "uint256",
          "name": "_amount",
          "type": "uint256"
        }
      ],
      "name": "BalanceUpdated",
      "type": "event"
    },
    {
      "anonymous": false,
      "inputs": [
        {
          "indexed": false,
          "internalType": "bool",
          "name": "_result",
          "type": "bool"
        },
        {
          "indexed": false,
          "internalType": "uint256[]",
          "name": "_sequence",
          "type": "uint256[]"
        },
        {
          "indexed": false,
          "internalType": "uint256",
          "name": "_amount",
          "type": "uint256"
        }
      ],
      "name": "JackspotResult",
      "type": "event"
    },
    {
      "anonymous": false,
      "inputs": [
        {
          "indexed": false,
          "internalType": "uint256",
          "name": "_amount",
          "type": "uint256"
        },
        {
          "indexed": false,
          "internalType": "address",
          "name": "_from",
          "type": "address"
        },
        {
          "indexed": false,
          "internalType": "address",
          "name": "_to",
          "type": "address"
        }
      ],
      "name": "PrizeTransfered",
      "type": "event"
    },
    {
      "inputs": [],
      "name": "getBalance",
      "outputs": [
        {
          "internalType": "uint256",
          "name": "",
          "type": "uint256"
        }
      ],
      "stateMutability": "view",
      "type": "function"
    },
    {
      "inputs": [],
      "name": "receive",
      "outputs": [],
      "stateMutability": "payable",
      "type": "function"
    }
  ],
  "bytecode": "0x60806040526006600155600154600a6200001a9190620001c3565b60025560006003553480156200002f57600080fd5b5062000214565b7f4e487b7100000000000000000000000000000000000000000000000000000000600052601160045260246000fd5b6000600282049050919050565b6000808291508390505b6001851115620000c4578086048111156200009c576200009b62000036565b5b6001851615620000ac5780820291505b8081029050620000bc8562000065565b94506200007c565b94509492505050565b600082620000df5760019050620001b2565b81620000ef5760009050620001b2565b8160018114620001085760028114620001135762000149565b6001915050620001b2565b60ff84111562000128576200012762000036565b5b8360020a91508482111562000142576200014162000036565b5b50620001b2565b5060208310610133831016604e8410600b8410161715620001835782820a9050838111156200017d576200017c62000036565b5b620001b2565b62000192848484600162000072565b92509050818404811115620001ac57620001ab62000036565b5b81810290505b9392505050565b6000819050919050565b6000620001d082620001b9565b9150620001dd83620001b9565b92506200020c7fffffffffffffffffffffffffffffffffffffffffffffffffffffffffffffffff8484620000cd565b905092915050565b61091880620002246000396000f3fe608060405260043610610046576000357c01000000000000000000000000000000000000000000000000000000009004806312065fe01461004b578063a3e76c0f14610076575b600080fd5b34801561005757600080fd5b50610060610080565b60405161006d9190610503565b60405180910390f35b61007e61009f565b005b60003073ffffffffffffffffffffffffffffffffffffffff1631905090565b600034116100e2576040517f08c379a00000000000000000000000000000000000000000000000000000000081526004016100d99061057b565b60405180910390fd5b7f04be25a4c0fe4c39136ca055daaac08ac6b3041b2e1f2a1b698bac12f1cbdc4a61010b610080565b6040516101189190610503565b60405180910390a16101293461012b565b565b60006101356101cf565b905061014081610336565b1561018e577f65edc48f250937d2ab863516196cf0cc23e17c06c5d9022a42c8fece09abaf1c6001828460405161017993929190610674565b60405180910390a161018961040b565b6101cb565b7f65edc48f250937d2ab863516196cf0cc23e17c06c5d9022a42c8fece09abaf1c600082846040516101c293929190610674565b60405180910390a15b5050565b6060600360008154809291906101e4906106e1565b91905055506060600254424433604051602001610203939291906107d0565b6040516020818303038152906040528051906020012060019004610227919061083c565b8160008151811061023b5761023a61086d565b5b6020026020010181815250506003600081548092919061025a906106e1565b9190505550600254424433604051602001610277939291906107d0565b604051602081830303815290604052805190602001206001900461029b919061083c565b816001815181106102af576102ae61086d565b5b602002602001018181525050600360008154809291906102ce906106e1565b91905055506002544244336040516020016102eb939291906107d0565b604051602081830303815290604052805190602001206001900461030f919061083c565b816002815181106103235761032261086d565b5b6020026020010181815250508091505090565b60008160018151811061034c5761034b61086d565b5b6020026020010151826000815181106103685761036761086d565b5b60200260200101511480156103b257508160028151811061038c5761038b61086d565b5b6020026020010151826001815181106103a8576103a761086d565b5b6020026020010151145b80156103f35750816002815181106103cd576103cc61086d565b5b6020026020010151826000815181106103e9576103e861086d565b5b6020026020010151145b156104015760019050610406565b600090505b919050565b60003073ffffffffffffffffffffffffffffffffffffffff163190503373ffffffffffffffffffffffffffffffffffffffff166108fc829081150290604051600060405180830381858888f1935050505015801561046d573d6000803e3d6000fd5b507f078890ebc36b3fa425062758fcf539cc2b4d70db5b66b6139f4558cff9297edd8130336040516104a1939291906108ab565b60405180910390a17f04be25a4c0fe4c39136ca055daaac08ac6b3041b2e1f2a1b698bac12f1cbdc4a6104d2610080565b6040516104df9190610503565b60405180910390a150565b6000819050919050565b6104fd816104ea565b82525050565b600060208201905061051860008301846104f4565b92915050565b600082825260208201905092915050565b7f496e6372656173652074686520616d6f756e7400000000000000000000000000600082015250565b600061056560138361051e565b91506105708261052f565b602082019050919050565b6000602082019050818103600083015261059481610558565b9050919050565b60008115159050919050565b6105b08161059b565b82525050565b600081519050919050565b600082825260208201905092915050565b6000819050602082019050919050565b6105eb816104ea565b82525050565b60006105fd83836105e2565b60208301905092915050565b6000602082019050919050565b6000610621826105b6565b61062b81856105c1565b9350610636836105d2565b8060005b8381101561066757815161064e88826105f1565b975061065983610609565b92505060018101905061063a565b5085935050505092915050565b600060608201905061068960008301866105a7565b818103602083015261069b8185610616565b90506106aa60408301846104f4565b949350505050565b7f4e487b7100000000000000000000000000000000000000000000000000000000600052601160045260246000fd5b60006106ec826104ea565b91507fffffffffffffffffffffffffffffffffffffffffffffffffffffffffffffffff820361071e5761071d6106b2565b5b600182019050919050565b6000819050919050565b61074461073f826104ea565b610729565b82525050565b600073ffffffffffffffffffffffffffffffffffffffff82169050919050565b60006107758261074a565b9050919050565b60006c0100000000000000000000000082029050919050565b60006107a08261077c565b9050919050565b60006107b282610795565b9050919050565b6107ca6107c58261076a565b6107a7565b82525050565b60006107dc8286610733565b6020820191506107ec8285610733565b6020820191506107fc82846107b9565b601482019150819050949350505050565b7f4e487b7100000000000000000000000000000000000000000000000000000000600052601260045260246000fd5b6000610847826104ea565b9150610852836104ea565b9250826108625761086161080d565b5b828206905092915050565b7f4e487b7100000000000000000000000000000000000000000000000000000000600052603260045260246000fd5b6108a58161076a565b82525050565b60006060820190506108c060008301866104f4565b6108cd602083018561089c565b6108da604083018461089c565b94935050505056fea26469706673582212202cbd994da01ad3e501d4529caa582577b05bc0d921fc026e3c3f07fd3160f1ba64736f6c634300080d0033",
  "immutableReferences": {},
  "source": "pragma solidity >=0.4.22 <0.9.0;\r\n\r\n\r\ncontract Jackpot {\r\n\r\n\r\n  //events\r\n  event JackspotResult(bool _result, uint[] _sequence, uint _amount);\r\n  event PrizeTransfered(uint _amount, address _from, address _to);\r\n  event BalanceUpdated(uint _amount);\r\n\r\n\r\n  uint jackpotSequence;\r\n  uint jackpotDigits=6;\r\n  uint jackpotModulus=10**jackpotDigits;\r\n\r\n  uint randJackpotNonce = 0;\r\n  struct Winner {\r\n    uint amount;\r\n  }\r\n\r\n  function _generateRandomJackpotSequence() private returns (uint[] memory) {\r\n    randJackpotNonce++;\r\n    uint[] memory sequence;\r\n    sequence[0] = uint(keccak256(abi.encodePacked(block.timestamp, block.difficulty, msg.sender))) % jackpotModulus;\r\n    randJackpotNonce++;\r\n    sequence[1] = uint(keccak256(abi.encodePacked(block.timestamp, block.difficulty, msg.sender))) % jackpotModulus;\r\n    randJackpotNonce++;\r\n    sequence[2] = uint(keccak256(abi.encodePacked(block.timestamp, block.difficulty, msg.sender))) % jackpotModulus;\r\n    return sequence;\r\n  }\r\n\r\n  function _validateSequence(uint[] memory _sequence) private pure returns (bool){\r\n    if(_sequence[0] == _sequence[1] && _sequence[1] == _sequence[2] && _sequence[0] == _sequence[2]){\r\n      return true;\r\n    } else {\r\n      return false;\r\n    }\r\n  }\r\n  \r\n  function getBalance() public view returns (uint) {\r\n    return address(this).balance;\r\n  }\r\n\r\n  function _withDrawAmount() private{\r\n    uint balance = address(this).balance;\r\n    payable(msg.sender).transfer(balance);\r\n    emit PrizeTransfered(balance, address(this), address(msg.sender));\r\n    emit BalanceUpdated(getBalance());\r\n  } \r\n\r\n  function receive() external payable{\r\n    require(msg.value > 0, \"Increase the amount\");\r\n    emit BalanceUpdated(getBalance());\r\n    _generateSequence(msg.value);\r\n  } \r\n\r\n  function _generateSequence(uint _amount) private{\r\n    uint[] memory sequence = _generateRandomJackpotSequence();\r\n    if(_validateSequence(sequence)){\r\n      emit JackspotResult(true,sequence,_amount);\r\n      _withDrawAmount();\r\n    } else {\r\n      emit JackspotResult(false,sequence,_amount);\r\n    }\r\n  }\r\n}",
  "sourcePath": "D:\\Projects\\Side Projects\\Solidity\\Slot Machine\\backend\\contracts\\Jackpot.sol",
  "compiler": {
    "name": "solc",
    "version": "0.8.13+commit.abaa5c0e.Emscripten.clang"
  },
  "schemaVersion": "3.4.7",
  "updatedAt": "2022-04-24T13:52:38.544Z",
  "devdoc": {
    "kind": "dev",
    "methods": {},
    "version": 1
  },
  "userdoc": {
    "kind": "user",
    "methods": {},
    "version": 1
  }
}